:020000040800F2
:10000000280D0020815C0008E15C00089550000884
:10001000E55C0008E95C0008ED5C000800000000F9
:10002000000000000000000000000000F15C00087B
:10003000F55C000800000000F95C0008F5500008BD
:10004000FD5C0008015D0008055D0008095D000811
:100050000D5D0008115D0008155D0008195D0008C0
:100060001D5D0008215D0008255D0008295D000870
:100070002D5D0008315D0008355D0008395D000820
:100080003D5D0008415D0008DD4F0008455D00084A
:10009000495D00084D5D0008515D0008555D000890
:1000A00005500008F74F0008595D00085D5D000825
:1000B000615D00080000000000000000655D0008B0
:1000C000695D00086D5D0008715D000800000000BA
:1000D000755D000835500008795D00087D5D0008F9
:1000E000815D0008855D0008895D00080000000052
:1000F0000000000000000000000000000000000000
:100100000000000000000000000000008D5D0008FD
:100110000000000000000000915D000800000000E9
:1001200000000000000000000000000000000000CF
:1001300000000000000000000000000000000000BF
:10014000955D0008995D00080000000000000000B7
:10015000000000000000000000000000000000009F
:100160009D5D0008A15D0008A55D0008A95D00086F
:10017000AD5D00080000000000000000000000006D
:1001800000000000B15D00082DE9F0419EB000F0D4
:1001900083FB00F019FBDFF8D046DFF8D08620683B
:1001A00040F4003020604FF0A046216801F4003197
:1001B00000910098216841F480212160002122688B
:1001C00002F4802200920C22009806A800F078FB2E
:1001D000182200210FA800F073FB042200216846BA
:1001E00000F06EFB1022002102A800F069FB18222B
:1001F000002109A800F064FB206840F080502060D6
:10020000216801F0805101910198216841F4003189
:100210002160226802F4003201920198216841F4C1
:10022000802121604321226802F48022019203226E
:10023000019809910A9200210D914FF0904009A96F
:1002400000F048FB0120032109900A9100220D9241
:1002500009A9404600F03EFB0020202106900791AE
:10026000089006A94FF0A04000F0ECFB00210F9190
:1002700011910022012113911092129214920FA950
:100280004FF0A04000F0F3FB706820F004007060B5
:100290004FF48031706820F008007060009169466A
:1002A000DFF8CC0500F0BEFB4021029102220021C4
:1002B00004910591039202A9304600F009FCF06810
:1002C00040F40010F060706820F0200070607068EA
:1002D00020F04000706002A9F06C20F4F85040F467
:1002E0008070F064706920F0380040F02000706188
:1002F000D6F8B00020F00200C6F8B000F06C20F094
:10030000C00040F04000F064304600F0E1FBF068CF
:1003100040F40010F06002A9706820F020007060C6
:10032000706820F040007060F06C20F4F82040F419
:100330000040F064706920F4E07040F480707061F7
:10034000D6F8B00020F00400C6F8B000F06C20F041
:10035000C00040F04000F064304600F0B9FBF068A7
:1003600040F40010F0601022706820F020007060EF
:100370000021706820F040007060F06C20F0F87090
:1003800040F42000F064B069C008C00040F00400F0
:10039000B061D6F8B00020F48060C6F8B000F06C10
:1003A00020F0C00040F04000F064306B20F4F860B2
:1003B00040F430703063B06920F0380040F028001D
:1003C000B061D6F8B00020F40060C6F8B00001A813
:1003D00000F076FA1822002105A800F071FAA06852
:1003E000DFF8906440F00050A060A06800F000507A
:1003F00000900098216841F40031216010212268AA
:1004000002F4003200920322009805910692002126
:1004100009914FF0904005A900F05CFA38200021C6
:100420000222019002910492304601AADFF848149A
:1004300000F084FB306840F004003060142200219A
:100440000FA800F03DFA2022002106A800F038FA9B
:100450002822002114A800F033FA1822002168464F
:1004600000F02EFA6068DFF8145440F40060606019
:100470004FF40066606800F400600E904FF48077DF
:100480000E98216841F4003121604FF090402268BD
:1004900002F400320E9202220E9901920021029182
:1004A00003910C220121049105920096694600F007
:1004B00011FA2021109100200121ADF83C004FF4E9
:1004C0007A628DF84C10119212970FA9284600F00D
:1004D00065FB286820F0800028606022A96941F04F
:1004E0000801A961069200210791089109910A91DA
:1004F0000B910C910D9106AA0121284600F08CFB6E
:10050000A86920F00400A8610021A86940F40060F7
:10051000A8610791089106AA1021284600F07CFBEB
:10052000A86920F48060A8610021E86940F0080013
:10053000E8610791089106AA3946284600F06CFB4D
:10054000E86920F00400E8610022E86940F40060F6
:10055000E86107920892702140F69F720691099215
:100560004FF4805106AA284600F056FBE86920F4B3
:100570008060E861A86820F0700040F01000A8607A
:100580000022A968BE48014041F00601A9604FF46D
:100590008061E86820F04000E860E86820F480406E
:1005A000E860686840F070006860686820F4700077
:1005B0006860A86820F08000A8601591149630212A
:1005C0008DF85C10ADF85E204FF40051189119922F
:1005D0004FF080761B921C921D9216971A9614A9C2
:1005E000284600F077FC206840F480202060022339
:1005F000216801F480210E910E98216841F40031A8
:1006000021604046226802F400320E924FF4C0424C
:100610000E99009203210022039202910622019377
:1006200004930592694600F055F94FF4004100919A
:1006300002220192032102910022039202210491DD
:10064000042205926946404600F044F94FF4E06107
:1006500000910222019203210291002203920221C1
:1006600004910622059269464FF0904000F032F95D
:100670001C22002107A800F023F91822002101A85C
:1006800000F01EF9606840F48040606002236068FA
:1006900000F4804000900098216841F4802121609E
:1006A000226802F480220092C02200990192002167
:1006B00002930391049105910722069201A94046F5
:1006C00000F008F94FF416500021079008910991A5
:1006D0000A910C220C910D910B9207A9694C2046AE
:1006E00000F03AFCA06820F48060A060606820F40C
:1006F00090406060A06820F02A00A060216841F06E
:100700000101216000F084FC5F49D1F80C0CC0F3BA
:1007100002200122C0F10703052B2FBF042302FA98
:1007200003F35B1E03F00403041D072C34BF0020F9
:10073000C01E834002FA00F0401E00F00100034397
:100740001B0181F818330E600023D1F80C0C81F8DE
:1007500019334FF000740C60D1F80C0CC0F3022078
:10076000C0F10703052B2FBF022302FA03F35B1E20
:1007700003F00203041D072C24BFC01E83401B018D
:1007800081F812334FF480200860D1F80C0CC0F3CC
:100790000220C0F10703052B2FBF032302FA03F346
:1007A0005B1E03F00303041D072C34BF0020C01E92
:1007B00083408240501E00F0010003431B0181F87A
:1007C000253320204860FEE710B53048304C0168E2
:1007D000C908C90041F0020101600068216841F0C8
:1007E0000101216020688007FCD5216821F0F80113
:1007F00041F080012160606820F4741040F46010C2
:100800006060E06A00090001E062216841F08071E7
:10081000216020688001FCD5616821F0F0016160F1
:10082000606820F4E06040F480606060606820F4FC
:100830006050606060688008800040F00200606086
:10084000606800F00C000828FAD1124800F002FCA1
:10085000042000F005FC206B800880002063206BE2
:1008600020F48070206310BD141002400004004882
:10087000000300500074004001001002002C0140F1
:10088000F8FFFEFF0038014000E100E000200240D8
:10089000001002400090D00300B5084881B0016804
:1008A00041F010010160032000F0FEFB042000F085
:1008B000D7FB00F057FC002001B000BD0020024033
:1008C00010B5044610460A460146204600F064FC76
:1008D000204610BD2DE9F0430246086890FAA0F3C7
:1008E000B3FA83FC0F2530FA0CF04FF003084FF0F9
:1008F00001096BD0086809FA0CF3184060D04C6805
:10090000176890FAA0F3B3FA83F6760008FA06F6B1
:1009100027EA060EB3FA83F67700BC4044EA0E04D9
:1009200014604C68012C18BF022C0FD18C6897689A
:10093000B3FA83F6760008FA06F627EA060EB3FA4B
:1009400083F67700BC4044EA0E049460B3FA83F661
:100950000C69D768760008FA06F627EA060EB3FA9D
:1009600083F67700BC4044EA0E04D4604C68022C45
:1009700026D1B3FA83FE4C69BEF1080F0ED2B3FA4A
:1009800083FE106A4FEA8E06B3FA83F305FA06F681
:100990009B00B0439C400443146211E0000A90FAAB
:1009A000A0F0B0FA80FE536A4FEA8E06B0FA80F0EB
:1009B00005FA06F68000B34384401C43546200BF2E
:1009C0000CF1010C086830FA0CF093D1486801284A
:1009D00018BF022806D10B685468C8689C4343437B
:1009E000234353600020BDE8F08330B4002513E0BA
:1009F00050F8042BD30744BFA9F101039A18091F2B
:100A0000042942F8045BFAD213468C0744BF1580D0
:100A10009B1CC90748BF1D7050F8041B0029E7D173
:100A200030BC7047274B1B68024600205FEAC37C3E
:100A300006D49368096823F440330B4393607047EE
:100A40000120704770B4024600209368DB070BD486
:100A5000D6681D4D0C684B6889682E4026431E439E
:100A60000E43D66070BC704770BC01207047F0B474
:100A700083680022DC071FD44C690D69CE680F68BB
:100A80004B68DFF848C033B1C3680CEA03031F4367
:100A90008B681F4303E0C3680CEA03031F433E4314
:100AA00035432C43C460036B49681B0941EA0313B7
:100AB00003631046F0BC7047F0BC0122104670473B
:100AC0000000000008000050C7BFFFFF3CC0F0FF5F
:100AD00030B482680023D20719D4CC684A6832B196
:100AE000C5688A6825F0047515432C4303E0C26885
:100AF00022F004721443C460C26C4C680968120A84
:100B00000C4344EA0222C264184630BC704730BC31
:100B100001231846704790F81C1169B90022012181
:100B200080F81D2180F81C11D0F82001016841F0E7
:100B3000200101600220704701207047F0B401F0ED
:100B40001001012405688C4000232540A54208BF00
:100B500001231BD0D5685468166874B13443076804
:100B6000926840F6FA7C14430CFA01FC254327EA0C
:100B70000C0705FA01F1394307E00468FA278F40B2
:100B80003543BC4305FA01F121430160F0BC18462E
:100B9000704700EB4100B0F93200704730B4DFF825
:100BA00098430368A04218BFB0F1804F01BF23F003
:100BB00070034A681343A0420ED0B0F1804F1CBFAF
:100BC000DFF87823904207D0DFF87453A8421CBFA7
:100BD000DFF87023904203D1CA6823F440731343B3
:100BE0000360A0428A68C2621CBFDFF8503398429B
:100BF0000A88826207D0DFF8482390421CBFDFF8E2
:100C00004433984201D1097C0163416941F00101FB
:100C10004161002030BC7047F0B403460120012937
:100C200013D010294ED0B1F5807F00F08B80B1F544
:100C3000805F00F0C780B1F5803F00F0EF80B1F534
:100C4000801F00F01881F0BC7047186ADFF8F812B6
:100C50004008400018621C6A5D689E6910680E407A
:100C60001169064324F002040C43DFF8CC125068EB
:100C700064088B421CBFDFF8C472BB4240EA4404E4
:100C800007D0DFF8BC0283421CBFDFF8B8128B42EA
:100C900012D15069D16924F0080444EA80049068B4
:100CA00024F0040444EA8004906925F48075054327
:100CB00025F4007545EA41055D609E61D068586382
:100CC0001C6204E1186A20F010001862196A5C685E
:100CD0009D69DFF8780216680540106921F020014F
:100CE00045EA062541EA00115068DFF84C6221F020
:100CF000100141EA0011B3421CBFDFF840028342F9
:100D000007D0DFF83C62B3421CBFDFF838028342F1
:100D100013D1506921F0800141EA8011906821F0DF
:100D2000400141EA8011906924F4806444EA80041F
:100D3000D06924F4006444EAC0045C609D61D0681A
:100D40009863C3E0186ADFF8001220F4807018621C
:100D50001C6A5D68DE6910680E401169064324F460
:100D6000007444EA01245068DFF8CC1124F4807444
:100D700044EA00248B421CBFDFF8C001834207D045
:100D8000DFF8BC118B421CBFDFF8B801834213D1DE
:100D9000506924F4006444EA8024906824F4806458
:100DA00044EA8024906925F4805545EA0015D0690D
:100DB00025F4005545EA40155D60DE61D068D863D2
:100DC0001C6284E0186A20F480501862196A5C681A
:100DD000DD695E4816680540106921F4005145EA56
:100DE000062541EA00315068534E21F4805141EA12
:100DF0000031B3421CBF5148834205D0504EB3422C
:100E00001CBF5048834204D1906924F4804444EAD2
:100E100080145C60DD61D068186457E0186A4C4942
:100E200020F4803018621C6A5D6D10680D401169F5
:100E3000054324F4003444EA014450683E4924F454
:100E4000803444EA00448B421CBF3C48834205D0B6
:100E50003B498B421CBF3B48834206D1596890698D
:100E600021F4803141EA002159605D65D068996DB7
:100E700098651C622BE0186A20F480101862196AC9
:100E80005C6D344815680440106921F4001144EA8F
:100E9000052441EA00515068274D21F4801141EAB0
:100EA0000051AB421CBF2548834205D0244DAB42C4
:100EB0001CBF2448834206D15D68906925F48025D3
:100EC00045EA80255D605C65D068D86519620020C0
:100ED000F0BC704730B40C7B8A684B684D6A144391
:100EE00024F480641C430A68CB8924F4006414430E
:100EF00024F480541C430A690F4B24F40054144317
:100F000024F480442C4324F400442C4398420FD111
:100F10004A690B6A24F47024144324F470041C43BB
:100F20008A69C96924F08074144324F000740C4366
:100F30004464002030BC7047002C01400040014058
:100F400000440140004801408CFFFEFFFF8CFFFE83
:100F50008FFFFEFFFF8FFFFE70B5044684B0206850
:100F60000E460125C10747D422682848716802400F
:100F7000F0680A4331690243B0690A4302432260C0
:100F80006168B06821F4405101436160A1687069F3
:100F900021F440710143A16019498C4203D1002022
:100FA00000F071F909E017498C421CBF16488442D1
:100FB00022D1684600F028F9029800281CBF316849
:100FC000002919D0B36900254A08B3F5004F0ED1A6
:100FD00002EB4002B2FBF1F080B24FF6F07101403B
:100FE000C0F342000143E160284604B070BD101810
:100FF000B0FBF1F080B2E060284604B070BD0000A4
:10100000003801400044004000480040F369FFEF11
:1010100010B582B000F0A6F90B4A0C4CA0FB0221DF
:10102000880A00F07BF8211D204600F0A1F900F0AD
:1010300097FA07480090231D2246012104F1080079
:1010400000F014FB02B010BD986E1283140700204C
:10105000085C000801490860704700002C07002068
:1010600030B50F4D0F4B2A7804464FF47A7118684B
:10107000B1FBF2F281B0B0FBF2F000F04FF858B9DA
:10108000102C09D2002221464FF0FF3000F019F851
:10109000AC60002001B030BD012001B030BD00BF08
:1010A000200700202C070020254B19684FF6FF026F
:1010B0000002114000F4E060084322490843186030
:1010C000704730B41E4B1C68C4F30223C3F10705FC
:1010D000052D28BF0F2405D20125C3F1070405FA09
:1010E00004F4641E1D1D072D34BF0023DB1E2140A8
:1010F0009940012404FA03F35B1E1A4011430901CD
:10110000020003D41048815430BC70470F4B02F0EA
:101110000F021A4402F8041C30BC7047401EB0F1A4
:10112000807F01D30120704709494860F02081F891
:10113000130D00228A60072008600020704700001D
:101140000CED00E00000FA0500E400E018ED00E01E
:1011500010E000E000F000B870470068012180F85E
:10116000221170470B4882B0016841F00101016013
:10117000026802F0010200920099426842F0805237
:101180004260406800F0805000900098042002B057
:10119000FFF78ABF1810024062F30F2262F31F426A
:1011A000401810F0030308D0C91A1FD3DB0748BF4B
:1011B00000F8012D28BF20F8022D130030B414468A
:1011C0001546103928BF20E93C00FAD8490728BF46
:1011D00020E90C0048BF40F8042D890028BF20F802
:1011E000022D48BF00F8012D30BC7047C91818BF48
:1011F00000F8012DCB0728BF00F8012D70470068CB
:10120000012180F823117047DFF844110A6802F0C9
:101210000C02082A16D10A688B6AD1F800C002F4C1
:101220008032B2F5803F0CBFDFF82821DFF828219B
:1012300003F00F035B1CB2FBF3F2CCF383439B1C64
:101240005A4301E0DFF80C210260DFF810C10A68A0
:101250000368C2F303121CF80220D34043600A68FB
:10126000DFF8FC30D0F804C0C2F302229A5C2CFAFA
:1012700002FCC0F808C009684268C1F3C221595C89
:10128000CA40C26070470146002000295DD1DFF8E6
:10129000BC100A6B02F00302012A04D02AD3032AED
:1012A0001CD021D326E0486800F00C00082818D193
:1012B0004868CA6A496800F48030B0F5803F0CBFC6
:1012C000DFF89000DFF8900002F00F02521CC1F32B
:1012D0008341B0FBF2F0891C4843704709688907D5
:1012E00033D5DFF870007047096A89072DD54FF4B0
:1012F00000407047486800F00C00082815D1486885
:10130000CA6A4B6800F48030B0F5803F0CBFDFF84C
:101310004400DFF8440002F00F02521CB0FBF2F070
:10132000C3F38342921C504301E0DFF828004A686F
:101330004968DFF82830C2F30312C1F302219A5C36
:10134000DFF81C30595CD040C840704700100240A4
:101350000410024000127A0000093D00645B00089E
:10136000A85C000801480068704700002C070020B6
:101370002DE9F04F0446694E81B00D4606F1880014
:1013800000F0F2F96648674FDFF89C81DFF89C9126
:10139000DFF89CA1DFF89CB1C6F8B00000216648D8
:1013A00086F87C10C6F8A80000F0E6F900F06AFBA9
:1013B000384600F099FBC6F894706048604FC6F854
:1013C0009000384600F09AFBD6F89410D6F89000BA
:1013D0003A4600F0E3FB404600F0F2FBD6F8A800E6
:1013E000D6F89010574B00904246484600F0EAFB72
:1013F000504600F079FB584600F076FB5248C6F89C
:10140000A000C6F898A0C6F89CB000F007FC4F48B2
:10141000D6F8A010DFF838A1C6F8AC00C0F810115B
:10142000C0F80C61504600F006FC4A48C6F8B4000B
:10143000C6F8A4A000F012FC002000F02BFC012054
:1014400086F82400D6F8900000F066FC3061D6F8EB
:10145000900000F061FC009006F1B801BDF80200B8
:10146000B082C6F884103346D6F8902006F1880181
:1014700006F1B80000F05BFCD6F8900000F061FCCB
:101480000146D6F88400002200F05EFCD6F8840005
:101490002060C6F83C903764C6F84880D6F89800BB
:1014A000D6F894102C4CF062B16200207063706426
:1014B000D6F89C10D6F890003163F064D6F8A810E6
:1014C000D6F8A400B163706506F18801316500208B
:1014D000F065D6F8A010D6F8AC00B16570660021B2
:1014E0003166B166F16631677167B16706F1280050
:1014F0002860204600F02FFCD6F8A010174822469E
:1015000000F03CFC0C2106F1880000F057FC0120A3
:1015100086F87C0001B0BDE8F08F00BF38070020DE
:101520001805002014010020BC020020CC0100207E
:10153000400100206C01002044020020980100209E
:10154000F40200201C0400206C0400200000002095
:101550004404002000050020CC05002030040020B9
:101560003E483F4981B001604FF4807202600160E3
:101570004FF40073016800914FF48131009A0160CB
:10158000036001604FF40063016800914FF48431FF
:10159000009A0160036001604FF48043016800918C
:1015A0004FF4A031009AC0F80014C0F80034C0F81D
:1015B00000144FF48063D0F8001400914FF482318E
:1015C000009A0160036001604FF4004301680091DC
:1015D0004FF4C031009AC0F80014C0F80034C0F8CD
:1015E00000144FF40053D0F8001400914FF49031E0
:1015F000009AC0F80014C0F80034C0F800140223A8
:10160000D0F800140091009A16490160036001604F
:101610000123016800914FF00111009A01600360FD
:1016200001604023D0F800C0CDF800C0009A0E4AF7
:101630000260036002600123D0F800C0CDF800C052
:10164000009AC0F80014C0F80034C0F80014D0F8B4
:1016500000040090009901B0704700BF1C000048D2
:101660000001010002000100400001002DE9F047E7
:101670000446DFF8AC802B48DFF8AC90C8F8CC000B
:1016800084B00D4616461F46B9E80E54A0E80E5425
:10169000B9E80E54A0E80E54303800943B46324668
:1016A000294600F0FBFBD8F8CC0000F004FCD8F889
:1016B000CC002322002100F008FCD8F8CC00242222
:1016C000012100F002FCA9F13009C8F8D080B9E886
:1016D0000F50A8E80F50B9E80F50A8E80F50DFF8F6
:1016E0004C90484600F000FCA8F130080C98D8F85F
:1016F000CC100F4A0F4B0290019100924946D8F846
:10170000D0000D4A00F0F2FBD8F8D00000943B4620
:101710003246294600F0C2FB04B0BDE8F08700BFA6
:101720000C080020C404002094040020D8050020E8
:10173000D15C0008170B00087D570008094908888C
:1017400010B10A88501E08804A88022A02D34888AD
:10175000421E4A808888022802D38888421E8A80D6
:10176000704700BF30070020002101704180818058
:1017700070470000010002002DE9F041014681B0F0
:101780004A6F14689568D668176950695368D4F829
:1017900004C02CF0040CC4F804C04FF0040EC4F8CC
:1017A00000E04FF0200ED4F804C02CF0200CC4F858
:1017B00004C0C4F800E0DFF8B0C2634507D1DFF829
:1017C000ACC2DCF800E04EF0010ECCF800E0A5B3AE
:1017D00092F87DC0BCF1010F23D0D5F800E00EF0E7
:1017E000700EBEF1400F1CD1DFF884E2DEF80C80F1
:1017F000B2F876C06FF30F184CEA0808CEF80C80E8
:10180000DEF8048048F00108CEF80480DEF800C05D
:101810005FEACC7805D4DEF800C04CF0010CCEF8BD
:1018200000C0D5F800E04EF0010EC5F800E0D5F894
:1018300000C04CF0004CC5F800C03EB1356845F022
:1018400001053560356845F0004535603FB13D68BC
:1018500045F001053D603E6846F000463E6018B325
:1018600092F88050012D17D0066806F07006402EC1
:1018700012D17F4EF768B2F878506FF30F172F43ED
:10188000F760776847F0010777603568EF0703D4A2
:10189000356845F001053560066846F001060660CA
:1018A000056845F000450560A068C5076FD4A068CD
:1018B00000F04050B0F1805F28D0A0686D4F20F05C
:1018C0004050A0600026A5686B48054045F0805553
:1018D000A5606A4D2868E0FB0776760C00960098B4
:1018E000A0B10098401E0090009878B10098401E6A
:1018F0000090009850B10098401E0090009828B1C8
:101900000098401E009000980028EAD1A5685C4825
:10191000054045F00045A560A068C00FFCD12568D2
:101920005548EE071FD4A568054045F00105A560A0
:101930002668F50717D4A668064046F00106A6609B
:101940002568EE070FD4A568054045F00105A560A0
:101950002668F50707D4A668064046F00106A6608B
:101960002568EE07DFD5A568054045F00805A560A8
:10197000A568284040F02000A0604025E06840F4C1
:101980000010E0602560606840F0400060604FF447
:101990007A701C68640864001C6003F118045D68B8
:1019A00025F070055D60256845F00805256026680E
:1019B00046F4006644F8046B256845F00805256088
:1019C000266846F4006626605C6944F001045C61A8
:1019D00092F88140022C14D192F88240012C04BF6D
:1019E00092F87B40032C13D101251D6303255C690C
:1019F00044F001045C611D63B1F86810491E59622E
:101A000015E091F8464094B992F87B40012C04D13E
:101A1000B1F86810491E596209E0032C07D1012171
:101A2000196303215C6944F001045C6119636FF080
:101A300080041C6192F87C1021B908E06FF4807278
:101A40001A61401E1969CA0501D50028F6D1D86867
:101A500040F08000D86040F25550196A0143196285
:101A600001B0BDE8F08100BF002C01400C2004E073
:101A70000074004047ACC5A7C0FFFF7F2C070020C3
:101A8000C0FFFF3F1648174981B00268D20712D441
:101A9000036843F001030360026802F00102009250
:101AA000009A0B6943F001030B6101684908490082
:101AB000016001B0704708680A6822F0700242F0C5
:101AC00020020A6000F070000A6942F001020A6117
:101AD0000B6823F070031843086001B0704700BF23
:101AE0001C10024004000040018842888180C280AE
:101AF0000022018C418482608262704710B50446E6
:101B0000012194F81601B4F92E2084F8F60084F827
:101B10000411002060861F4890FBF2F000B210B361
:101B2000638E00EBD070C0035B1C00144900638619
:101B3000C8B100EBD070C0035B1C00144900638681
:101B400088B100EBD070C003001449005B1C002872
:101B5000638608D000EBD070C003001449005B1C02
:101B600000286386DCD121862046B4F9301012FBB0
:101B700001F1094A81FB0232121202EBD272628534
:101B800000F0D8F904F13400FFF7AEFF00206082C6
:101B900010BD00BF5EEA0F00C58D480601614261BD
:101BA00090F82A100170B0F92C20B0F92E10120410
:101BB00042600904002281604280C26082617047F5
:101BC00000F00BBA70B4039E04460025E26604F1EF
:101BD0000C000022A1662367666784F8545084F8DD
:101BE000552001E080686D1C10B1E9B20529F9D3D8
:101BF000E9B201EB410204EB82020020906084F81C
:101C0000485064202188044B4143A1FB0332520A0F
:101C100084F8562070BC7047986E128310B5044645
:101C200004F10C0000F0F0F984F826002046BDE82D
:101C3000104000F0BFBA10B50446207848B9201D06
:101C400000F0E2F984F826002046BDE8104000F0DC
:101C5000E1BA618A21820020E08210BD002181600A
:101C60004160C1600161012141617047C3688268C0
:101C7000012B03D901698A185B1E04E004D1426874
:101C800041694A430023C3608260406992FBF0F0DF
:101C900070470E0010B584B004460422002102A84B
:101CA000FEF70EFE042200216846FEF709FE04221C
:101CB000002101A8FEF704FE26211648029A11FB16
:101CC00004F1014400EB84040A60019B4B60009A1C
:101CD000CA600022009B0B61CA83009BC1F81630CA
:101CE0000023019AC1F81A200B840021D4F898002F
:101CF00000F093FAD4F89C00002100F08EFAD4F89A
:101D0000900000F08CFAD4F8A80000F090FA04B02B
:101D100010BD00BF3807002081B0B0F92E10ADF81B
:101D20000010008EADF80200009801B0704701600D
:101D30004260002183600173C1810182C18201760A
:101D40007047B0F92C00704701230373C181C28230
:101D500003764376704710B402894368847A012978
:101D600002D1012C02D105E0012C03D19A6201704D
:101D700010BC70479A61017010BC704710B50446E2
:101D8000022321606260237201211046FFF7E3FF06
:101D90000022218AE089084B62814143A1FB033282
:101DA000500A401E4FF6FF71884288BF084601D88E
:101DB00000B90120A08110BD986E128310B5027881
:101DC0000024142A0ED8DFE802F01821572D4755B9
:101DD00057595B610D0D0B27292B3739414E3F00B9
:101DE0000A0057D003291CBF0129072903D000226C
:101DF000802100F01EFA204610BD0A46032A49D071
:101E0000012A45D101240170204610BD072918BFC1
:101E10000D293FD00E2934E00E2918E00F2916E0D5
:101E2000022914E0072918BF102933D0042918BF4C
:101E300011292FD0012924E0112908E0122918BF07
:101E4000072927D014291CE0122900E0042913D106
:101E500001240170204610BD0A46132A06D1012430
:101E60000170204610BD0A46042A13D0072A11D05B
:101E7000052A06E006290DD0072902E0082900E01E
:101E80000929AFD101240170204610BD0A0001D0FC
:101E90000C2AA7D101240170204610BD81B0DDF8C5
:101EA00004C0017702620021436280F82C10C0F860
:101EB00028C001B070474169002918BF0847704722
:101EC0008169002918BF084770474368002B18BF75
:101ED0001847704700B581B0836889220BB19847D5
:101EE0000246104601B000BD00F0B8B9F0B581B0AF
:101EF000044608461546069F0799089AC4F8C41078
:101F00002063C4F8C0201E460749084B084A0091C8
:101F1000214600F0B8F96563A663E763204601B087
:101F2000BDE8F04000F0BAB9D95C0008512A0008B9
:101F3000DD5C000870B4024681B000201066906637
:101F4000908082F8F60082F8F800C2F8FC00C2F82F
:101F5000080182F82301002392F80E0100210028D5
:101F60005166D166D18182F8F71082F8F910C2F873
:101F7000001182F8221124DD10F0030100F0098025
:101F800002F174050024DEB25B1C25F81640491EE0
:101F9000F6D1800800F0158002F174040021DDB252
:101FA00024F815105B1CDDB224F815105B1CDDB2A3
:101FB00024F815105B1CDDB25B1C24F81510401EC4
:101FC000EAD1002082F8F400A2F80C0101B070BC44
:101FD000002102F1340000F020B90021017081805D
:101FE000C1808181C18141820170016241620185AC
:101FF000018680F82C1080F82D1080F8321080F8BF
:102000003310C28EC285704770B40146FF220E792C
:10201000654C002304EB8300406A18B9042A0ADDEA
:102020001A4608E00579B54202BF00680D68A8426B
:1020300004BF1A4604235B1CDBB2042BEADB104608
:10204000042855DA04F12403002543F8201044F84D
:1020500030500B689868C0071AD45C6824F00404F8
:102060005C600420186020255C68504824F020043F
:102070005C601D609C68044044F000449C6098686B
:10208000C00FFCD19C684A48044044F001049C60A5
:10209000186B000900011863087904460A2C0546EC
:1020A00009D2022606FA00F040EA856004EB4404F7
:1020B00040EA04500BE0022606FA00F00A3C40EA2F
:1020C000856004EB440440EA045040F00070C40D05
:1020D000143304F004048968E318000D00F01F00B5
:1020E0001C6807258540AC4301FA00F020431860C6
:1020F000104670BC70472C4901EB80000222416AF7
:10210000087982400A2842EA806204D200EB40004B
:1021100042EA005206E00A3800EB400042EA005270
:1021200042F00072086850F8303F120D23F4F86353
:1021300002F4F8621A4302601D480A68136CD2F870
:1021400008C000EA0C0C4CF0040CC2F808C0086887
:1021500002685207FCD5006C80B2704730B5124C53
:1021600094F82100012881B01BD194F82000FFF7DA
:10217000C2FF022194F8203084F8211060841D46AB
:1021800054F8351069B1002284F8212004EBC50110
:102190004A680146184654F8353001B0BDE8304071
:1021A000184701B030BD0000E0080020C0FFFF3F2D
:1021B000C0FFFF7F30B4418B828B5218018B5208D5
:1021C000002301B3016A9CB221F814205B1C048B2C
:1021D0009DB2A54217D29CB221F814205B1C048B3F
:1021E0009DB2A5420FD29CB221F814205B1C048B37
:1021F0009DB2A54207D29CB221F814205B1C048B2F
:1022000099B2A142DED300218280C28080F82510DD
:1022100030BC7047002101827047816070470178AF
:10222000012903D100690021FFF7F7BF70478168DA
:10223000084730B403465C889D8818780C4324EA2C
:10224000020229430A285A80998002D122B90B2020
:1022500001E00AB10A20187030BC704700214182A9
:102260000175417580F8961080F8971080F89810E5
:1022700080F8991080F89A1080F81B1180F81C11D2
:1022800080F81D11704781B030B1DDF804C00160E5
:1022900042608360C0F80CC001B0704710B50446BE
:1022A000206BE16B8847802084F8C800A16B206B0D
:1022B000BDE810400847000070B504460FF2B511A4
:1022C000606F456806680020E0652066606684F8F7
:1022D0006E002A6ADFF8200502402A626160402110
:1022E0000FF2FD00A0610422A4F86C1084F86F20A6
:1022F00084F83A20204600F00DFB686800F070007A
:102300007028FAD1B168DFF8F404014041F0080107
:10231000B16004F16E03606F90F87B2004F1380126
:10232000284600F047FB204600F065FB002084F8BB
:102330006E0084F86F0084F83A0020460FF27D1199
:10234000616000F0E7FA606F90F87B2004F16E03A3
:1023500004F13801284600F02DFB204600F04BFB2D
:10236000E06DDFF89C1461600009E065206E0009F3
:102370002066606E000960660FF27900A06105F1C9
:102380001800016821F008010160011D026822F4B3
:10239000006202600B6823F008030B60B4F8682049
:1023A0006A63B4F86830AB63B4F86820EA63036822
:1023B00043F008030360026842F4006202600422F2
:1023C000086840F00800086040F25550296A01434F
:1023D0002962002084F83A2084F8720070BD000061
:1023E00090F86F10B0F8682080F83A10511E89B24A
:1023F0002CE00000F0B4426F838FB0F86840B2F870
:102400007210E51AAFB2B94206D2042180F83A1030
:10241000B0F86820511E16E0C68F2D049E1BED0BF0
:10242000B6B2B54203D2B2F87410591A0BE0C9180B
:102430008AB2A24207D3B0F868308022C1EB4301D0
:10244000A0F86C20491EF0BC89B200BF426F5268F0
:10245000438E5363B0F834C0C2F838C0C08ED06326
:102460001164506800F07000401E8041C043C00FEE
:102470007047000030B4446F90F86F2004EB820383
:102480005D6A2A68DB6B1B686468656825F0700507
:10249000656090F86E40102C0AD2C46D1219C265A6
:1024A000026E9B18036690F86E305B1C80F86E30ED
:1024B00000200880488030BC7047000030B4436F73
:1024C00090F86F2003EB8204E56B2A685B685C6818
:1024D00024F070045C6090F86E30102B07D2436ECD
:1024E000D218426690F86E20521C80F86E200020B0
:1024F0000880488030BC704770B4416F4A6890F8DB
:102500004710002942D102F11803BE4C196821403E
:1025100041F060011960166A46F001061662002655
:10252000116A21F0040111625663416F91F87A102B
:1025300001290DD11E68B4490E4046F480561E6034
:10254000156A25F010051562116A41F040010EE090
:1025500002290DD11E68AC490E4046F400561E609B
:10256000156A45F010051562116A21F040011162EB
:1025700053F8041F0C4044F070041C60136A23F4E9
:1025800080731362116A21F4806111620FF24911A4
:102590000FF27D12416042610FF2BD119B4AC16092
:1025A0008260012180F8471070BC7047416F4A6813
:1025B00090F84710012900D0704770B41368D9060D
:1025C000FCD51368D906FCD402F118038D4C1968A8
:1025D000214041F060011960166A46F0010616625A
:1025E000416F91F87A10012903D1116A41F0040179
:1025F00004E0022903D1116A21F004011162B0F84C
:102600006810490851631E687F490E4046F4C04671
:102610001E60156A45F010051562416F91F87A1039
:10262000012903D1116A41F0400104E0022903D1DC
:10263000116A21F040011162B0F8681049089163F5
:1026400053F8041F0C4044F060041C60136A43F408
:1026500080731362416F91F87A10012903D1116AD6
:1026600041F4806104E0022903D1116A21F4806100
:102670001162B0F868104908D163416F0968CA68EF
:1026800022F48012CA605E49614A41604261614938
:102690005E4AC1608260002180F8471070BC7047BC
:1026A0000246506FB2F8683040685943090C5186B1
:1026B0000321538E82F83A1043634068118F00F073
:1026C0007000401E8041C043C00F012902D100218B
:1026D0000120118770470000426F5268536823F051
:1026E00070035360026E436F90F83A0003EB800C66
:1026F000DCF83C301868101A474A904203DD47F670
:10270000FF72904200DB104608804880704700004E
:10271000416F496800224A636FF001020A610B6948
:102720005FEAC37CFBD50A614A6C42F400424A640A
:10273000416F91F87A20022A0DD1B1F86C20896995
:102740008A61416FB1F86E20C9698A62406FB0F842
:102750007010006A8162704770B4426F51681268ED
:10276000002380F842300C68E306FCD40C68E306D2
:10277000FCD501244C63B0F868305B1F0B646FF02C
:1027800001030B610C69E507FCD50B614B6C43F44D
:1027900080634B644B6C43F400434B64436F93F88A
:1027A0007A40022C19D1B3F86C409B690D6A40F253
:1027B0005556354206D09C61436FB3F86E40DB69D5
:1027C0009C6105E09C62436FB3F86E40DB699C62DC
:1027D000436FB3F870401B6A9C62032480F83A4050
:1027E00093680648034043F008039360C86840F0CC
:1027F0000100C86070BC7047AAFAFFFFC0FFFF7FEE
:102800001D2800088CFFFEFFFF8CFFFEF729000843
:1028100051420008152900080180FFFF70B490F8AC
:102820003A30456F05EB8304052B626A1268E46B4E
:1028300024686D686E6826F070066E6058D8DFE810
:1028400003F01B393903031BC36D9A1A304B9A42AC
:10285000B8BF0B8005DBB2F5004FA8BF47F6FF728B
:102860000A80056E2C1B9C423BDBB4F5004F3EDB1F
:1028700047F6FF724A803BE0036E254D9A1AAA4242
:10288000B8BF4D8005DBB2F5004FA8BF47F6FF7219
:102890004A80436EB1F90220E41AA41AB4F5004F3D
:1028A00003DB47F6FF730B8022E0AC42ACBF0C8029
:1028B0000D801DE0C36D164D9A1AAA42B8BF0D8057
:1028C00005DBB2F5004FA8BF47F6FF720A80436EE2
:1028D000B1F90020E41AA41AB4F5004F03DB47F65F
:1028E000FF734B8004E0AC42B8BF4D8000DB4C80EE
:1028F0000A88A0F848204B88A0F84A30B1F9002097
:1029000049885242521AA0F84C2070BC704700BF50
:102910000180FFFF70B4416FB0F868304968002251
:1029200080F842205B084B63B0F8682052088A6345
:10293000B0F868205208CA63B0F86820521F0A64D1
:102940006FF001020A610B69DC07FCD50A614B6C70
:1029500043F480634B644B6C43F400434B64436F1C
:1029600093F87A40022C1ED1B3F86C409B690D6A33
:1029700040F2555635420BD09C61436FB3F86E4020
:10298000DB699C61406FB0F87030006A83610AE0D7
:102990009C62436FB3F86E40DB699C62406FB0F895
:1029A0007030006A83620A61C86840F00100C86044
:1029B00070BC7047F0B40468521C04F06004602CD2
:1029C0001CBF1204520C6FF0020452050461002572
:1029D0001E78102E0DD20669B707F9D56D1CAEB260
:1029E000B6EB124F0461F3DB1F78102FF0D20120F9
:1029F0000880F0BC7047416F4968CA6852085200AD
:102A0000CA60002380F842304A6C22F400424A64D3
:102A100090F87220012A12D0426F92F87A30022B7D
:102A20000DD1B2F86C3092699362426FB2F86E3099
:102A3000D2699362406FB0F87020006A82626FF0D2
:102A4000010008610A69D307FCD5086170470000DE
:102A50002DE9F0418AB00446884600205FEA581507
:102A600016461F468DF8040013D06D1E2A4600211D
:102A7000204600F0CDFA18B90B208DF80500AAE227
:102A8000D4F8C40008F01F0818B12A46002100F04D
:102A9000BFFAB8F1120F00F29B82DFE818F09C0237
:102AA0001300A9008E01990299029801C601EB0159
:102AB0001E02450256026802DB0199029902990240
:102AC00099029C023178052088298DF8050000F2D2
:102AD0008B80DFE801F045898954896F6F6F6F6FD4
:102AE0006F6F6F6F6F6F797989896F6F6F6F6F8994
:102AF00089895B6589898989898989898989898998
:102B00008989898989898989898989898989898935
:102B1000898989898989896F89898989797979896F
:102B200089898989896F8989896F6F6F6F6F6F6FE5
:102B3000897989898989896F89896F6F8989898963
:102B4000898989898989898989895479797979797A
:102B50008989897979898989898989896F6F6F00DC
:102B60007578D4F8C4002A46002100F051FA2A46AC
:102B70000021204600F04CFA8DF804002BE2727818
:102B8000204600F045FA8DF8040024E27278D4F86B
:102B9000C4000021FFF799F901208DF804001DE21F
:102BA0007278D4F8C4000121FFF78FF901208DF865
:102BB000040013E27078B27800EB0222204600F0A5
:102BC00027FA8DF8040006E27078B278337900EBCA
:102BD0000222F07802EB004202EB0362204600F092
:102BE00017FA8DF80400F6E102218DF80510F2E1E4
:102BF0003178032288298DF8052000F2EC81DFE886
:102C000011F08900C00089008900C000B200B20044
:102C1000B200B200B200B200B200B200B200B20024
:102C2000B200B200B200B200B200B200B200B20014
:102C3000B200B200B200B200B2009700A500C0001E
:102C4000B200B200B2008900EA01EA01EA01EA0139
:102C5000EA01EA01EA01EA01EA01EA01EA01EA011C
:102C6000EA01EA01EA01EA01EA01EA01EA01EA010C
:102C7000EA01EA01EA01EA01EA01EA01EA01EA01FC
:102C8000EA01EA01B200EA01EA01EA01EA01C00050
:102C9000C000C000B200B200B200B2008900C000A3
:102CA000B200B200B200B200B200B200B200B20094
:102CB000B200B200B2008900C000EA01B200B20066
:102CC000B200B200B200EA01EA01B200B20089002B
:102CD0008900C000C000C000C000C0008900B20070
:102CE000B200C000EA01B200B2008900C000C0001A
:102CF000C000C000C000C000C000C000C000C000D4
:102D0000C0008900EA018900CE00CE00CE00B200EA
:102D1000B200B20001AA204600F0CCFA00909DF863
:102D20000400012840F0578101236A46F02162E146
:102D3000D4F8C400002800F04E810021FFF7CAF843
:102D40008DF8000001236A46F02154E1D4F8C40054
:102D5000002800F040810121FFF7BCF88DF8000049
:102D600001236A4659E001AA204600F0A3FA009028
:102D70009DF80400012840F02E8102236A46F021CC
:102D800039E101AA204600F095FA00909DF8040070
:102D9000012840F0208104236A46F0212BE101AA9A
:102DA000204600F087FA00909DF80400012840F0CA
:102DB000128104236A46F0211DE1317807228DF843
:102DC0000520204600F02EFD8DF8040003E102A846
:102DD00000210022002300252EC02EC0002002A9C1
:102DE000D4F8C020125C092A04D0CA70401C491CC7
:102DF0001D28F5DBD4F8C0104A1D02A9135C8DF81C
:102E00000830D4F8C0200244D3794B70D4F8C020E5
:102E1000104402AA437A8B702023206B656BF0214B
:102E2000A84701208DF80400D8E030797179F37853
:102E300000EB01223078717800EB0121B07801EBD2
:102E4000004192B201EB0361204600F035FD8DF8A0
:102E50000400C0E03079717900EB0122307871789C
:102E600000EB012192B209B2204600F03FFD8DF83F
:102E70000400B0E00DF1060000900DF10A03317876
:102E800002AA204600F03CFDBDF90A005D4AC0EBF5
:102E90000011890081FB0232901000EBD070021407
:102EA0008DF80C0003A905128A700016BDF90620E2
:102EB000C8701212BDF806004A7108714D700823DF
:102EC000BDF80820BDF808008871120ACA71206B8D
:102ED000656B03AAF021A8477DE07079B17900EB1A
:102EE000012212B200927078B17800EB0122F078E2
:102EF000317902EB004202EB016202EB82004000FA
:102F0000414AF17980FB02320244307A531103EBDB
:102F1000D37301EB002231781BB292B2204600F04D
:102F200017FD8DF8040056E0B078F17800EB01222F
:102F30003078717800EB012112B209B2204600F01E
:102F400024FD01218DF8041048E00C218DF80510B6
:102F500002968DF80C7002A82C4D294600F023FD36
:102F600000288DF8040042D02B792A6838E000222E
:102F70000DF10801D4F8C000805CB8B10870521C93
:102F8000D4F8C000805C88B14870521CD4F8C000EE
:102F9000805C00280AD08870521CD4F8C000805C85
:102FA00020B1C870521C091D202AE3DB202A05DA53
:102FB00002A8C2F12001104400F0F8FC206B656B00
:102FC000202302AAF021A84701218DF8041005E072
:102FD00001228DF805209DF8040040B10023002255
:102FE000206B646BF021A0470AB0BDE8F08101239B
:102FF0000DF10502FF21206B646BA0470AB0BDE80C
:10300000F08100BF6766666689888888200900208D
:1030100070B5164682B0026A90F82C3052F8234000
:10302000426A52F8232001255B2900F23C81DFE847
:1030300011F05C003A013A0179003A017000730026
:10304000760095009C009F00A200A500B200B90088
:10305000C000C700E0003A013A01FE0016013A0143
:103060003A013A013A013A013A013A013A013A0188
:103070003A013A013A013A013A013A013A013A0178
:103080003A013A013A013A013A013A013A013A0168
:103090003A013A013A013A013A013A013A013A0158
:1030A0003A013A013A013A013A013A013A013A0148
:1030B0003A013A0133013A013A013A013A013A013F
:1030C0003A013A013A013A013A013A013A013A0128
:1030D0003A013A013A013A013A013A013A013A0118
:1030E0003A013A013A013A016300F1B200F061FCA1
:1030F0000546284602B070BD06EB860040006C49CC
:1031000080FB01310144491101EBD171002209B268
:103110001EE0106831B240E0106831B244E010683F
:1031200031B248E0F0B250B9204600F04DFC014603
:103130000022204600F04CFC284602B070BDF6B2DA
:10314000012E40F0B180204600F04BFC00220146E9
:103150002046FEF7F9FD284602B070BD204600F07B
:1031600043FC0090ADF800600EE0506831B214E00E
:10317000506831B218E0506831B21CE0204600F0CF
:1031800033FC0090ADF802602046009900F033FC5B
:10319000284602B070BD906831B200F03BFC284672
:1031A00002B070BD906831B200F036FC284602B023
:1031B00070BD906831B200F031FC284602B070BD9D
:1031C000806A50F823000024010F092908BF946980
:1031D000C0F30360092808BFD469002C64D06A4694
:1031E0000DF10201204600F01BFCBDF9002031B2B8
:1031F00017E0806A50F823000024010F092908BF56
:103200009469C0F30360092808BFD469002C4BD02F
:103210000DF102026946204600F002FCBDF90010E3
:1032200032B2204600F001FC284602B070BD806A30
:1032300050F823000024010F092908BF9469C0F346
:103240000360092808BFD46974B30DF1020269460E
:10325000204600F0EDFBBDF9001032B216E0806AA6
:1032600050F823000024010F092908BF9469C0F316
:103270000360092808BFD469B4B16A460DF10201A0
:10328000204600F0D5FBBDF9002031B2204600F009
:10329000DEFB284602B070BD31B2204600F0E7FBED
:1032A000284602B070BD0025284602B070BD00BFA0
:1032B0008988888870B5034682B05C6A1D6A93F875
:1032C0002C0054F8204055F8205000200AB1012667
:1032D0001670812900F29D82DFE811F082008700DC
:1032E0008C00B9009100950097009900AD00D400C2
:1032F000D600D800B100E200E700EC00F1000C01BC
:103300009B029B0259013E019B029B029B029B0078
:10331000A0001B0220022202A50047024B029B02D2
:1033200053025B025F0267026B0247024B027302A9
:1033300077027F0283028B0293029B029B0227018A
:1033400074018B01A101BB01D1019B029B029B0275
:103350009B029B029B0228022D0235023902DA00F1
:10336000EB0103029B029B029B029B029B029B02BE
:103370009B029B029B029B029B029B029B029B0265
:103380009B029B029B029B029B029B029B029B0255
:103390009B02BE009B029B029B029B029B029B0224
:1033A0009B029B029B029B029B029B029B029B0235
:1033B0009B029B029B029B02CA00CF00A9009B02BA
:1033C0009D029D029B029B029B029B029B029B0211
:1033D0009B029B029B029B029B029B029B029D0203
:1033E000184600F048FB02B070BDA06A00F046FB32
:1033F00002B070BDA06A00F047FB02B070BD284665
:1034000000F0EFFAA6E120684BE020684EE020686B
:1034100051E0206B00F03AFB02B070BDE06A00F0B2
:103420003BFB02B070BD284600F049FB92E1DFF89B
:10343000EC0302B070BD284600F0D6FADCE1284665
:1034400000F0D2FA0090BDF9020002B070BD28462B
:1034500000F03FFB02B070BD284600F03AFB0128A7
:10346000284602D100F037FB74E100F0BAFA71E1AE
:10347000206800F038FB02B070BD206800F035FB1A
:1034800002B070BD60680CE060680FE0606812E038
:10349000284600F0A9FA0090BDF9020002B070BD04
:1034A000A06800F024FB02B070BDA06800F022FB11
:1034B00002B070BDA06800F020FB02B070BD986A39
:1034C00093F82C1050F8211000200A0F092A08BF89
:1034D000A069C1F30361092908BFE069002800F071
:1034E0008C810DF10202694600F09AFABDF90000E4
:1034F00002B070BD986A93F82C1050F8211000208B
:103500000A0F092A08BFA069C1F30361092908BF8E
:10351000E069002800F071816A460DF1020100F0B7
:103520007FFABDF9000002B070BD996A93F82C20B3
:1035300051F822200021130F092B08BFA169C2F303
:103540000362092A08BFE169002900F06481084686
:1035500000F0D6FA02B070BD986A93F82C1050F8BB
:10356000211000200A0F092A08BFA069C1F30361D6
:10357000092908BFE069002800F03F810DF102022F
:10358000694600F055FABDF9000002B070BD986AB6
:1035900093F82C1050F8211000200A0F092A08BFB8
:1035A000A069C1F30361092908BFE069002800F0A0
:1035B00024816A460DF1020100F03AFABDF90000DB
:1035C00002B070BD996A93F82C2051F82220002196
:1035D000130F092B08BFA169C2F30362092A08BFB0
:1035E000E169002900F01781084600F08CFA02B06A
:1035F00070BD996A93F82C2051F822200021130FF6
:10360000092B08BFA169C2F30362092A08BFE16957
:10361000002900F00081084600F07FFAECE0996A8A
:1036200093F82C2051F822200021130F092B08BFFA
:10363000A169C2F30362092A08BFE169002900F009
:10364000EA80084600F069FA0090BDF9020002B075
:1036500070BD996A93F82C2051F822200021130F95
:10366000092B08BFA169C2F30362092A08BFE169F7
:10367000002900F0D080084600F05DFABCE0996AAD
:1036800093F82C2051F822200021130F092B08BF9A
:10369000A169C2F30362092A08BFE169002900F0A9
:1036A000BA80084600F047FA0090BDF9020002B067
:1036B00070BD996A93F82C2051F822200021130F35
:1036C000092B08BFA169C2F30362092A08BFE16997
:1036D000002900F0A080084600F039FA001402B07A
:1036E00070BD996A93F82C2051F822200021130F05
:1036F000092B08BFA169C2F30362092A08BFE16967
:10370000002900F08880084600F024FA001402B076
:1037100070BDE06B00F021FA02B070BD002100E046
:1037200001211846FEF7D6FB02B070BD1A69002AC7
:1037300071D0002103E01A69002A6CD001211846DB
:10374000904702B070BD606A00F00AFA02E0606A59
:1037500000F008FAC0EB00118800314A80FB023209
:10376000901000EBD07002B070BD284600F0FDF95B
:1037700042E0284600F0F9F90090BDF9020002B0DD
:1037800070BD6169002946D0084600F0F5F902B025
:1037900070BD284600F0F3F92EE0284600F0EFF95E
:1037A0000090BDF9020002B070BD284600F0EEF9AD
:1037B00022E0284600F0EAF90090BDF9020002B0CC
:1037C00070BD284600F010F916E0284600F00CF90C
:1037D0000090BDF9020002B070BD284600F0DDF98E
:1037E0000AE0284600F0D9F90090BDF9020002B0C5
:1037F00070BD284600F0D9F90090BDF9000002B074
:1038000070BD284600F0D1F90090BDF9020002B069
:1038100070BD02B1107002B070BD00BF7A84A634D2
:103820006766666630B581B0026A90F82C000124A4
:10383000491E52F820500D2939D8DFE801F0070958
:103840000B393916262C323838383809284612E018
:10385000284615E0284600F0B0F9062828D1284669
:1038600000F0AEF9204601B030BD284600F0A5F9C1
:103870000028284604D100F0A6F9204601B030BD4A
:1038800000F0ABF9204601B030BD284600F0A9F9A0
:10389000204601B030BD284600F0A6F9204601B010
:1038A00030BD284600F0A4F9204601B030BD002408
:1038B000204601B030BD000030B501EB810381B07E
:1038C0005B000949056A83FB0141194490F82C30DB
:1038D00055F82300491101EBD17109B2FEF734FA12
:1038E000012001B030BD00BF8988888810B5036A07
:1038F00090F82C4053F8240000F06AF8012010BD25
:103900002DE9F04381B08846416A90F82C0051F8C7
:1039100020104C69164699460125A4B1089F4146DE
:10392000204600F06DF930804146204600F06EF9E7
:10393000A9F800004146204600F06FF9388001B038
:103940002846BDE8F0830025284601B0BDE8F08395
:10395000F0B50C461D4681B0416A90F82C0051F834
:1039600020305F69BDF918602146384600F05CF9E7
:103970002A462146384600F05DF93246214638464F
:1039800000F05EF9012001B0F0BD82B0ADF800108A
:10399000ADF80220026A90F82C30009952F823000A
:1039A00002B000F028B80020704700000022FDF7A8
:1039B000F7BB0246012092F81CC0614501D30020EC
:1039C000704782F82C1070478068B0F91E0070476D
:1039D0000182C28202230121002203730176427612
:1039E0007047406800F032B981B080680169009189
:1039F000084601B0704702B403210173BDF80020EE
:103A000042820122BDF802108182027600214176B5
:103A100001B0704781807047C18070474184704712
:103A2000438C0B80C08C108070474184C2847047E7
:103A300070B504460D46164604F1340000F057F800
:103A4000288004F1340000F055F8308070BD30B5A6
:103A5000044681B0154604F13400FFF7DBFF294628
:103A600004F1340001B0BDE83040FFF7D5BF8068F5
:103A700041828182704790F82C0070470146888807
:103A8000498840EA01407047007870470146C8887D
:103A900049884843000C7047017869B9018A026A75
:103AA0008A1AB0F91E10808C4A43D31302EB1342DA
:103AB00000EB224000B27047808A00B2704700B528
:103AC00081B0406800F0C8F801B05DF804EB00F088
:103AD000C5B8407E7047014600200A7B012A08BF16
:103AE000B1F90E007047008B7047408B7047B0F9FA
:103AF00004007047B0F906007047B0F92200704723
:103B0000B0F904007047B0F90C10B0F91400C1EB23
:103B1000C13191FBF0F000B2704781B0B0F81C11D8
:103B2000026E0A41ADF80020406E0841ADF8020077
:103B3000009801B0704781B0B0F97010ADF8001076
:103B4000B0F87200ADF80200009801B07047D0F8EC
:103B500000017047D0F8FC007047B0F904017047CD
:103B6000C08B7047B0F92400704781B08068C1688D
:103B70000091084601B0704790F84800704781B046
:103B8000806801680091084601B0704781B0806884
:103B900041680091084601B0704781B08068D0F854
:103BA00016100091084601B0704781B08068D0F8C7
:103BB0001A100091084601B070470068FFF764BF13
:103BC000406800F04EB810B5044603212068FEF7A7
:103BD000F5F8012808BF207610BD00680721FEF720
:103BE000EDB8006800F041B800680121FEF7E6B8C2
:103BF00010B504466068FEF78FF8A168086110BD33
:103C000001EB410200EB82008089704701EB410229
:103C100000EB8200B0F90E00704701EB410200EBAF
:103C20008200B0F91000704701EB410300EB830004
:103C30008281704701EB410300EB8300C281704732
:103C400001EB410300EB8300028270474068C1131F
:103C500000EB11400014704740697047B0F90C0048
:103C600070470021C16081617047014600200A78D9
:103C70000B2A04D10920087000228A800120704795
:103C8000F0B583B00021ADF802109548954C964DE3
:103C900000F030F906460DF10201204600F05CF913
:103CA0000746D5F8AC0000F039FA05F18800FFF7B7
:103CB000EBFEC01E102800F21081DFE810F01600A5
:103CC0005900C000DA00EA00FB0000010E010E01FD
:103CD00011000E010E010E01270033003D00A1006E
:103CE000042E40F0FA800021F3E0D5F8840000F0C3
:103CF00051FA01467D4800F065FAD5F8A80000F0B9
:103D0000A7FA142000F0D0FA1021E2E000F0D2FA75
:103D1000002800F0E280D5F8A800002100F0D4FAD5
:103D20001121D6E0D5F8A800012100F0CDFA002835
:103D300000F0D3801221CCE0012085F824006C49EA
:103D4000D5F8900000F0E0FA2046FEF7F3F80421E1
:103D500005F18800FEF732F8012840F0BE8000200F
:103D6000FDF798FFD5F8A800FEF7D4FD03B0F0BD2D
:103D70005E4E304600F0CAFA30B90022102105F13B
:103D80008800FEF756FA07E0D5F8900000F0F6FA42
:103D9000B5F91410288269826946554F384600F0FB
:103DA00019FB304600F059FB012840F09680BDF920
:103DB0000010204600F05BFB06463146384600F016
:103DC000A9FB002E00F089802046FFF799FE0146EE
:103DD000686800F0AFFB0190D5F8B400FDF73EFF36
:103DE000B5F91010D5F8B400002200F0D7FBBDF9EA
:103DF0000410D5F8B400192200F0D0FB132168E0BC
:103E00003A4800F083FA10B9002210213BE0384E06
:103E10006946304600F0DEFA0446304600F000FC09
:103E200004435AD0D5F89400FFF75FFEB5F910109F
:103E30004143D5F89400FEF7F0F9052149E0D5F8A3
:103E40009000214600F060FA002000F0ECFB00201A
:103E500000F0EAFB062105F18800FDF7AFFFD5F879
:103E6000900000F0F5FBD5F8840000F0F9FB03B0FA
:103E7000F0BDD5F8840000F0F3FB002000F0D4FB87
:103E80005FBB0022202105F18800FEF7D2F903B0C4
:103E9000F0BDD5F8A800FEF7AEFD0020FDF7FAFE54
:103EA000D5F8AC0000F011FC4FF4487000F01AFC9B
:103EB00008210EE000F01CFC78B1092109E00C4C4F
:103EC000D5F89000214600F01FFA2046FEF785F84D
:103ED0000C2105F18800FDF771FF03B0F0BD00BFB4
:103EE00030040020F402002038070020CC0100201C
:103EF000BC02002010B50446217A491E032929D8A6
:103F0000DFE801F00210081B608948B90221217224
:103F1000207A10BD608918B904212172207A10BD61
:103F2000411E16E0206800F0EDFB042812D0606806
:103F30000021FDF710FF032009E0206800F0E2FBFC
:103F4000042807D160680121FDF705FF0120A18940
:103F500020726181207A10BD2DE9F04F81B00B46AF
:103F600090F80E21002600250021002A88460092A4
:103F700089468A468C468E462ADD144614F0030292
:103F800000F00A8000F174075FFA85FB37F91B70B7
:103F9000C9196D1C521EF5D1A408224600F01880E4
:103FA00000F17404EFB234F9177039446D1CEFB2AC
:103FB00034F9177039446D1CEFB234F91770394475
:103FC0006D1CEFB234F917406D1C521E2144E7D12D
:103FD000BDF9004091FBF4F400990025002924DD8F
:103FE0000A46D10705D5B0F97410091B01FB01F889
:103FF0000125520819D001464FEA020001F174026E
:10400000EFB232F91720121B02FB028842466D1CE8
:1040100001F17408EFB238F917706D1CA7EB0408B2
:10402000401E08FB0828E9D10846B0F81011009D91
:1040300004FB04F24A43971198FBF5F802EB576230
:104040001946B8EBE21F438B8278B8BF4FF0010AE4
:104050005C43C3695443427894FBF3F393FBF2F25D
:104060000A80828180F8F5A090F80431012B30D1CC
:104070001300B0F81A2148BF5B42934221DAB0F92D
:104080007020B0F9729090F8196112FB02F219FBDE
:104090000929B0F91420C3EBC33393FBF2F2564362
:1040A000731106EB9366B6115643721106EB9263D9
:1040B00090F818219B1102FB13634B45B8BF4FF0DA
:1040C000010E80F8F9E0C0F8FC90C0F8006172467B
:1040D00000E0012290F8F830CBB190F8F530002BD9
:1040E00018BF002A11D190F8F72090F81731521C10
:1040F00080F8F720D2B29A4209D3C27880F8F7C08C
:104100000270604601B0BDE8F08F80F8F7C000F0A3
:10411000FBFA8446604601B0BDE8F08FF0B5044676
:1041200081B0D4F80C01194FB0F90E20B0F90C1081
:10413000B0F91630B0F9180012FB00F6D4F81001EF
:1041400011FB03F5FFF7A2FC7519114AE91305EB02
:104150001145D4F80811484380FB023290112D1408
:1041600000EBD070454305EB4506750001B085FBBB
:1041700007C7B91001EBD171C81301EB10412046FC
:10418000BDE8F040091400F0EBBA00BF6766666650
:10419000B5814E1B014601200A7B012A04D00FD3B2
:1041A000032A07D003D37047B1F90E1004E0B1F928
:1041B000101001E0B1F91210002948BF4FF0FF3094
:1041C00070470000F0B5044681B00020E66E84F828
:1041D000550084F8580084F8530084F854000D46C4
:1041E000A76EE5803046FDF7F8FE0021384600F066
:1041F000E6FA608810FB05F109B2304600F0E3FAF8
:1042000000220021384600F0E5FA208AA28910FB3E
:1042100005F109B2384600F0DDFAE089A28910FB09
:1042200005F109B2304600F01FFBA1892088074B39
:104230004143A1FB0332520A6069521C0021A28053
:10424000A06084F8571001B0F0BD00BF986E1283D3
:10425000416F4968012280F842206FF00103426FEC
:10426000D2F804C0CCF8103000224A638A63CA63D3
:104270000A69D307FCD54A6C42F400424A64416F94
:1042800091F87A20022A0DD1B1F86C2089698A61EF
:10429000416FB1F86E20C9698A61406FB0F8701043
:1042A000006A8161704700000149A1F880007047F1
:1042B00038070020034AB2F88010002001B901201D
:1042C000704700BF3807002030B5044600250800BD
:1042D00081B008D12046FDF7AAFFB4F85200A4F837
:1042E000440070B909E001290BD1B4F8440038B199
:1042F000401EA4F8440080B218B9216920468847BE
:104300000125284601B030BD4161704770B50446B3
:104310000125A08800281FBF401EA08080B2002871
:1043200028D1A06828B302888088E188124E10FB4B
:1043300001F1A06E09B200F04DFAA0680288408831
:10434000E18810FB01F1E06E09B200F08DFAA1687E
:1043500020880A884243A2FB06635B0A5B1CA38099
:10436000886894F85810A060491C84F858102846B2
:1043700070BD0025284670BD986E128370B5044646
:104380002078E26800280CBFA5686568012A04D976
:10439000A169521E4D19E26005E004D1B4F9025042
:1043A00000212D04E160EA1305EB124636140128C2
:1043B0000DD16069FFF752FC361A206931B200F066
:1043C00097FA06460004A0606560304670BDA5609F
:1043D000304670BD70B5038D0022022B1AD3446A9B
:1043E000036A1C194462E51304EB15442414C481C8
:1043F000438BB0F90E405C43437804EB8405C469F9
:104400006D005C4395FBF4F30B808381048D631E88
:10441000038516E0012B12D1B0F92A300B8083817D
:10442000458B8C5EC369028505EB85065C4376008F
:10443000437894FBF6F414FB03F3C38101E0848911
:104440000C8090F82D301BB9C1780170104670BDFA
:1044500000F05AF90246104670BD0146002091F85E
:10446000582091F849108A4228BF0120704770B443
:104470000A4690F82331A0F824210021012B90F85E
:10448000223108BFB0F90C20012B36D0B0F90C4016
:1044900012FB04F5002D3ADD002C44BF644224B227
:1044A000002A48BF524290F8125112B215FB02F591
:1044B000EB1005EB137590F8133113FB02F2D610D5
:1044C00002EB167290F8F5302D031203012B1CD16C
:1044D000B0F81431A6B2B34217D2B4EB224FA4BF46
:1044E0002D14A54211DB90F8F62090F81631521CDD
:1044F00080F8F620D2B29A4209D3012180F8F81050
:1045000000230370084670BC704780F8F61070BC3A
:104510000846704702460120012902BF82F82C009C
:10452000B2F93610002903D182F82D001170002055
:104530007047000071B583B008B200F019FA01901D
:10454000BDF90420BDF90C30BDF90600BDF90E100F
:1045500013FB02F400FB1144E41304F30F04ADF861
:10456000004013FB00F0BDF900500A4CA54204BF07
:10457000094EADF8006011FB0200C01300F30F00FC
:10458000ADF80200A04204BF0349ADF80210009844
:1045900004B070BD0080FFFF0180FFFF2DE9F047F0
:1045A00005460F46A86869695FEA020890FBF1F4C6
:1045B0000BD1384600F032FA686147430020E860CA
:1045C0002861AF600120BDE8F0873E1B304600F057
:1045D00025FA8146204600F021FA8246384600F04E
:1045E0001DFAD14528BFD146814588BF8146C5F80F
:1045F000149009FB04F4AC606F602868074A08FB5C
:1046000000F868694643A8FB0221490A491C96FB49
:10461000F1F02861E9600120BDE8F087986E12830F
:1046200090F82D007047704710B52623074A13FBFA
:1046300000F3D41894F8241039B902EB8002D2F8B0
:104640009000FFF79BFEE083208210BD380700201A
:1046500010B504466069FFF701FB0004606010BDFF
:1046600010B5040030D0207E01282DD1217B002000
:10467000012904D00FD303291BD00FD30BE0A2686C
:1046800082F82400606800F09AF8E28AB4F90E100B
:10469000606800F09FF8A8B1022014E0A068002133
:1046A00080F82410606800F08AF8E28AB4F91010EB
:1046B000EEE7A068012180F82410D4F812200261EE
:1046C000022000E00320207610BD10B504464FF410
:1046D0008071FFF76BF90022A4F80021A4F80221F1
:1046E00010BD00000149A1F8820070473807002082
:1046F000034AB2F88210002001B90120704700BFC0
:1047000038070020008970470122F0B40025495F76
:10471000C37804780E0048BF4942868A8FB2BE42F1
:10472000C68A38BF012589B2B142B0F9121038BF2C
:1047300001250E0048BF4942068B89B28E4200D344
:104740001DB19C4204DA641C02E09C42B8BF002404
:10475000E1B2994208BF002204701046F0BC7047D5
:1047600070B402460023B2F8000122F81010B2F82B
:104770000001B2F80041A2F80241401CA2F8000179
:10478000144680B2802828BFA2F800315FF02000D4
:1047900034F9025B34F9026B5B1934F9025B9B1943
:1047A00034F9026B5B199B19401EF1D1981103EB90
:1047B0005063DB11A2F80431084670BC70470170E9
:1047C0000021C16070474378018691FBF3F3C380F9
:1047D000818070472DE9F04106460C463078174637
:1047E0000125B0B9304600F02EF9F18CB6F9282039
:1047F000A142B8BF002594421EDB29002FD0FFB98B
:104800003078270401280CBF7760B7600020F06083
:1048100024E07068C11300EB1140F18B0014A14239
:10482000A4BFB6F92420944206DB318C8C42BCBF75
:10483000B6F92220A242E2DA00252846BDE8F0813E
:104840007480B18B074B07FB01F8A8FB0332510AB8
:10485000271A491C3F04F16097FBF1F0B06128462C
:10486000BDE8F081986E1283134690F82C20002A40
:1048700000D07047F0B41A0012D1448BC269818114
:1048800004EB840502FB01F36D004278418593FB44
:10489000F5F313FB02F20023C2810385F0BC7047DD
:1048A000828E478B114DB0F90E6041855343A3FBB7
:1048B0000554C369457803FB01F207EB8703640ADB
:1048C0004FEA430C641C92FBFCFC96FBF5F204855A
:1048D0000FFA8CF312B29A1A1204A4B292FBF4F3F8
:1048E0005D43360405624662F0BC7047986E1283E1
:1048F000F0B4B0F90430B0F91450B0F91660B0F962
:10490000062000244B430AB9846016E051438268B4
:104910008F1806D5002AC8BF002906DD6FF00047B2
:1049200003E0002A44BF0029104FC168B94203DBED
:104930000169B942B8BF39468160878B82683B41C3
:10494000C78B42FA07F1CB189D4206DAEC1AA4187D
:104950002B46846018B2F0BC7047B342BCBFF41A57
:104960003346A418846018B2F0BC70470100008080
:10497000A0F500410904890D11F4407081B028D0E0
:10498000B0F5807F37D0B0F5007F05D0B0F5407F1F
:1049900012D0009801B070471F48CAB230F81230E8
:1049A000ADF80230C1F1FF01C9B230F91100ADF824
:1049B0000000009801B07047174AC1F1FF00C0B273
:1049C00032F81030ADF80230C9B232F91110494254
:1049D0001DE01148CAB230F912305B42C1F1FF014B
:1049E000ADF80230C9B230F911004042ADF8000014
:1049F000009801B07047084AC1F1FF00C0B232F917
:104A000010305B42ADF80230C9B232F91110ADF886
:104A10000010009801B07047544A0008010048BFD8
:104A2000494201225FF00100C2F11F0300FA03F3C3
:104A3000994205D2521C5FFA82FCBCF1200FF3D3DD
:104A4000511E884070478068C11300EB114000146C
:104A5000704700000000C90092015B022403ED03CF
:104A6000B6047F0548061107D907A2086A09330A68
:104A7000FB0AC40B8C0C540D1C0EE30EAB0F721012
:104A80003A110112C8128F1355141C15E215A816FD
:104A90006E173318F918BE19821A471B0B1CCF1C4E
:104AA000931D571E1A1FDD1F9F2061212322E5221F
:104AB000A62367242825E825A82667272628E52891
:104AC000A329612A1F2BDC2B992C552D112ECC2EBE
:104AD000872F4130FB30B5316E322633DF339634C9
:104AE0004D350436BA366F372438D9388C39403AC8
:104AF000F23AA53B563C073DB83D683E173FC53FDF
:104B000073402141CE417A422543D0437A44244523
:104B1000CD4575461C47C34769480F49B449584AB3
:104B2000FB4A9D4B3F4CE04C814D204EBF4E5D4FAC
:104B3000FB4F97503351CE51685202539B5332541E
:104B4000C9546055F5558A561D57B0574258D35829
:104B50006459F359825A0F5B9C5B285CB35C3E5DE1
:104B6000C75D4F5ED75E5D5FE35F6860EB606E615F
:104B7000F0617162F1627063EE636C64E8646365B6
:104B8000DD655666CF664667BC673268A6681969F8
:104B90008B69FD696D6ADC6A4A6BB76B236C8E6C3E
:104BA000F86C616DC96D306E966EFB6E5E6FC16F95
:104BB00022708370E27040719D71F9715472AE720F
:104BC00007735E73B5730A745F74B27404755575B8
:104BD000A575F37541768D76D87622776B77B377A6
:104BE000FA773F788478C77809794A798979C879DA
:104BF000057A417A7C7AB67AEE7A267B5C7B917B69
:104C0000C57BF87B297C597C887CB67CE37C0E7D57
:104C1000397D627D897DB07DD57DFA7D1D7E3E7EAC
:104C20005F7E7E7E9C7EB97ED57EEF7E097F217F72
:104C3000377F4D7F617F747F867F977FA67FB47FAC
:104C4000C17FCD7FD87FE17FE97FF07FF57FF97F5E
:104C5000FD7FFE7F2DE9F04F054685B0B5F92E00AA
:104C6000AB6EC0EBC0329A42B8BFAA6604DBA0EBC1
:104C7000C0309842A8BFA866AB6EB5F81E0143FAD3
:104C800000F00FFA80F8EB6EB5F92E009A42B8BF2B
:104C9000EA6604DBA0EBC0309842A8BFE866EA6E83
:104CA000B5F81E012B6E42FA00F00FFA80FBB5F941
:104CB0002C00C0EBC0329A42B8BF2A6604DBA0EBDE
:104CC000C0309842A8BF28666B6EB5F92C009A4296
:104CD000B8BF6A6604DBA0EBC0309842A8BF686624
:104CE000B5F81C312C6E88886A6E049244FA03F67B
:104CF000301A00B21A41ADF80220CB88BDF802206C
:104D0000D31AB5F9242003921BB20A890292B5F98D
:104D100020A0B1F90020B5F92290B5F928E01AFBDE
:104D200006FC029EA4EB0C04564310FB0944361407
:104D30001EFB0644039E08FB1646B5F92A40019463
:104D40006F8E8DF80070B5F926C0AF6EB5F90E20E4
:104D500010FB0C709DF900704BFA07F4019F14FBD7
:104D600002F407FB0404BDF90200049F1AFB00F0E3
:104D70003F1A13FB0979029FB1F90200784300142E
:104D80001EFB0091E86EDDF80C9013FB0C039DF9FF
:104D900000000BFB191948FA00F0019910FB02F210
:104DA0009A4601FB12AAB5F92421B5F90400A5F829
:104DB0007080002A54BF01274FF0FF37A5F872B06A
:104DC000FFF7D6FD00901BFB07F1BDF9000049423B
:104DD00011FB00F1BDF9020007FB08F2490012FBCC
:104DE00000F009144000A1EB204105F13400FFF769
:104DF0007FFD95F8F41095F80E212882491CC9B260
:104E0000914208BF002105EB4102B2F87430A5F8C9
:104E10000C31A2F8740085F8F410A9884018A88015
:104E20002E66AC66C5F86490C5F86CA0B5F90400B0
:104E300005B0BDE8F08F70B481B002B481B0B0F8B5
:104E40005030BDF90650BDF90420018E5D436D421E
:104E50004A436D005119AA1A01EBD17102EBD272CB
:104E60004910521000294BD5002A18D5042480F887
:104E70003A408C1A651404EB9534A41404EB9303A4
:104E800014140D1402EBD43201EBD53103EB624262
:104E9000A3EB61418187C387A0F8402079E02C14FF
:104EA000002D05EBD43415DC0321AD1A80F83A103F
:104EB0006E1405EB9635AD14111405EB930302EB5C
:104EC000D13203EB6242A2EB64418187C287A0F832
:104ED00040305EE002224D1B80F83A206E1405EB54
:104EE0009635AD140A1405EB930301EBD231A3EB15
:104EF000614101EB64428287C187A0F8403048E0FD
:104F0000002A16D4012480F83A408C1A651404EB68
:104F10009534A41404EB9303141402EBD4320D144F
:104F200003EB624201EBD531A3EB61418287C3877A
:104F30002DE02C14002D05EBD43415DC05224D1B7F
:104F400080F83A206E1405EB9635AD140A1405EB83
:104F5000930301EBD231A3EB614101EB6442838700
:104F6000C187A0F8402014E00021AD1A80F83A1063
:104F70006E1405EB9635AD14111405EB930302EB9B
:104F8000D13203EB6242A2EB64418387C287A0F86F
:104F90004010C18643868286B0F84E10012919D18F
:104FA000B0F94830B0F85410428E002BCCBF8A18AC
:104FB000521A4286B0F94A30828E002BCCBF8A1832
:104FC000521A8286B0F94C30C28E002BCCBF8918A1
:104FD000511AC186816903B070BC084700B54FF013
:104FE000A04181B04020086000F09EF801B05DF85B
:104FF00004EB00F03BB948496FF0010008604748F6
:1050000000F04AB910B5444C2068010605D56FF090
:1050100080022260414800F056F92068C00505D59D
:105020006FF4807121603D4800F05AF9BDE81040EE
:1050300000F070B910B53A4CD4F82001C1698A0665
:105040000ED5818CC9B2204600F08CF90088012869
:1050500002D100F0F9F903E0022808BF00F0FAF9E4
:10506000D4F82001C069000644BF204600F0F8F9DA
:10507000D4F82001C06900070AD5204600F022FAC2
:10508000D4F8201108200862BDE8104000F0E2B911
:1050900010BD000010B500F021FA214C04E00228F8
:1050A00008BF00F0D7F900BFD4F82001C06900079D
:1050B00008D5204600F006FAD4F82011082008622E
:1050C00000F0C8F9D4F82001C069000644BF2046AA
:1050D00000F0C6F9D4F82001C1698906E4D5818CB5
:1050E000C9B2204600F03EF900880128D7D100F06F
:1050F000ABF9D9E710B50B4C2078022805D100F0A8
:10510000FDF9FCF727F8002020702178491C217058
:10511000BDE8104000F0FAB9102C01404402002014
:10512000D8050020360700202DE9F0414B4C94F8BB
:105130008810D4F81A0086B01329039009D1D4F846
:10514000B40000F0F7F920B9D4F8B400FCF78EFDF4
:105150002082D4F89000FEF77FFD0746FEF7D0FCD2
:105160000546384600F0ECF9D4F8A80001A900F093
:10517000EAF9019800F0EAF906462946FFF7DAF95C
:105180000090B4F91010BDF90000091AD4F8980085
:10519000FFF7AEFBADF80800B4F91210BDF902003C
:1051A000091AD4F89C00FFF7A3FBADF80A00029996
:1051B000D4F8B00000F0EEF98046384600F0C0F9AF
:1051C0002946404600F011FA0746D4F8A8003946AF
:1051D000FFF731FE0199009AC4F81680012821607A
:1051E0006660E260C4F81A70258409D100220121AA
:1051F00004F18800FDF71DF8002006B0BDE8F0813D
:105200001748184DFFF729F9064660680490D4F84E
:10521000A00000F009FAADF8140003A92846FFF732
:1052200019FD284600F002FA16B9284600F029FABE
:1052300004F18800FEF728FC04281CBF1328052869
:1052400008D12846FEF75CFCADF800006946064828
:1052500000F01BFA002006B0BDE8F08138070020FE
:10526000CC010020F4020020BC02002030B5094D22
:105270000446D5F8CC0081B0FEF7FDFBA04206D174
:10528000D5F8CC0001B0BDE83040FCF719BE01B044
:1052900030BD00BF0C08002030B4426F90F83A10C7
:1052A000536802EB8104B0F86C10656D12680D4311
:1052B000D5644022596841F070015960A0F86C2013
:1052C000463030BC7047416F49684A6C42F4806296
:1052D0004A64012180F8711080F8721046307047DE
:1052E00090F87210002902BF416F91F87A20022ACB
:1052F0000BD18B69B1F86C209A62CB69B1F86E2042
:105300009A62B1F87020096A8A62012280F87020DE
:105310004630704710B5124C94F87C0001281DD11E
:10532000B4F87E0028B1B4F87E00411EA4F87E10C7
:1053300004E0FEF7A5FC0120A4F87E00B4F880008C
:1053400020B1B4F88000411EA4F88010B4F88200A7
:1053500020B1B4F88200411EA4F8821010BD00BF35
:105360003807002030B5044681B094F81C01334D55
:1053700000285FD094F81D01020002D001280DD052
:105380001DE084F89910208A94F81D116082491C50
:105390002B4D84F81D11284601B030BD94F81D0135
:1053A00084F89A10401C84F81D0194F89A00802813
:1053B00040DB002184F81D11284601B030BD94F86F
:1053C0009A20921C90420ADA04F19903195494F835
:1053D0001D01401C84F81D0101B0284630BD00208D
:1053E000608284F81B110022D4F82001154D016859
:1053F00021F02001016084F81C2104F1990000F0E3
:105400008EF994F81B1188420BD194F89A3094F8D5
:105410009910206804F19B02A468A047284601B0B7
:1054200030BD0A208DF8000001236A46FF21204686
:1054300000F0A4F9284601B030BD00BF7217000883
:10544000741700087617000801494F2048807047FC
:1054500030070020014900204880704730070020B5
:10546000014691F8970060B391F89800020002D0CD
:10547000012802D003E0087D0AE0487D08E04A7D6B
:10548000921C9042BABF01F11403185C91F8960087
:10549000D1F8202110854A7D91F89800921C904205
:1054A00003DA401C81F898007047D1F820010268A7
:1054B00022F080020260002381F897300868496872
:1054C0000847704700B581B008218DF8001001230E
:1054D0006A46FF2100F052F901B000BD10B5064C3C
:1054E000D4F8A800FDF787FA04F18800BDE8104061
:1054F00000228021FCF79DBE380700200248416849
:1055000002788A184260704720070020084991F805
:105510007C00002800D1704700B581B0FFF7FAFE8B
:1055200000F06EF901B05DF804EBFCF707B900BFBD
:105530003807002001460020C96801B901207047E2
:10554000B0F91000704742681047000001B481B004
:1055500044F6E612BDF90400ADF8000001460B4820
:1055600011FB00F0BDF9061011FB02F2A0EB4200A6
:10557000C01300F30F00ADF8020010F5004F04BF98
:105580000349ADF80210009802B070471AB6FFFF49
:105590000180FFFF02B481B00091BDF90430BDF974
:1055A000062013FB03F112FB021C018849436145ED
:1055B00018D290F8B2104FEA1C6CACEB010C5FFAF9
:1055C0008CFC00EB4C0080884343424399139013BA
:1055D00003EB514302EB5042DB13D213ADF8003022
:1055E000ADF80220009802B0704731B582B008B221
:1055F000FFF7BEF90190BDF90430BDF90840BDF9CF
:105600000610BDF90A2014FB03F512FB03F012FB90
:10561000015501FB1401ED13C913ADF80050ADF8AD
:105620000210009803B030BDC088704710B490F8E5
:105630000E4190F80F1190F8F420D0F80831611A5B
:1056400007D100F1740131F91220B0F90C119A1848
:105650000DE08918A142ACBF0C1B0C4600F174018F
:1056600031F912209A1800F1740333F91410511A09
:10567000B0F82021C0F8081141FA02F3C38110BC30
:10568000704700213430FCF7C8BDF0B490F83320E7
:105690000124012A08BFB1F900203CD04378C68814
:1056A000B0F90E50028E95FBF3F39E19C680AA182E
:1056B00090F82C600286012E2DD1B0F92E303BB926
:1056C000CA5E80F82D400370828010B2F0BC704733
:1056D0005B1EC385002DB1F90060B0F9367052BF72
:1056E000B51A951B4FF0FF342DB215FB03F393FB56
:1056F000F7F313FB04F3002D1BB208D4012280F84A
:1057000032200C88E21A828010B2F0BC704790F808
:10571000321001B19A19828010B2F0BC7047B0B457
:10572000002138B342780178891889B20023F2B198
:10573000821CDCB25B1C155D42784919DCB29442D4
:1057400015D2851CDFB25B1CEC5D2144DCB29442B7
:105750000DD2DFB25B1CEC5D2144DCB2944206D278
:10576000DFB25B1CEC5D2144DCB29442E0D3080460
:1057700001EB1061B0BCC8B27047000030B5044600
:1057800081B094F89700C0BB180004F1160521758C
:1057900063751DD013F0030000F0068012F8011BA2
:1057A00005F8011B401EF9D19B0811D012F8010B1E
:1057B00005F8010B5B1E12F8011B05F8011B12F81E
:1057C000010B05F8010B12F8011B05F8011BEDD1C7
:1057D00004F11400FFF7A3FF84F8960001210020D4
:1057E00084F8980084F89710D4F82001016841F0FB
:1057F00080010160022001B030BD012001B030BD48
:10580000074890F87C10012900D0704700B581B09E
:10581000002000F007F801B05DF804EBFCF79EBC37
:10582000380700202DE9F04304462448DFF8909023
:10583000008881B0A046ADF8000009EB8805D5F8D6
:10584000A40000F03FF83DF818600640D5F8A80025
:1058500000F056F80643200007D1BDF80070D9F8D3
:10586000A00000F04FF807403E4308EB480009EB6A
:105870004007F04382B2314607F18800FCF7D9FCBB
:1058800007F18800FEF700F90A2808D00B2804BFAA
:10589000D5F8A800FCF7CBFC01B0BDE8F083D5F843
:1058A000A800FCF7C4FC2046FCF7F4F9D5F8AC00DE
:1058B000FEF70BFF01B0BDE8F08300BF921C0008AB
:1058C0003807002010B504462078A8B994F82600BF
:1058D000FCF711FC4FF6FF71884207D0218B238A19
:1058E0004A1E03FB0200B0FBF1F02082204600F0CC
:1058F0007AF8E082E08A10BD0020E082E08A10BDE4
:10590000C16908472DE9F043002781B00546B84634
:10591000B94600244FF6FF7607E0404598BF804621
:10592000B84200D30746641C8144288BE1B281420F
:105930000AD295F82600FCF7DEFBB042F5D0E1B2C2
:105940000029EAD18046EDE7A9EB0707A7EB080796
:10595000801EB7FBF0F290B2B0423DD02B6A95F8B2
:10596000250023F810200027288B0026040025D0CE
:1059700010F0030100F008805FFA86FC33F81CC0C9
:10598000761C491E6744F7D1800817D0F1B233F86E
:1059900011107918761CF7B233F81770761C394459
:1059A0005FFA86FC33F81C70C919761CF7B233F81D
:1059B00017C0761C401E01EB0C07E7D1B7FBF4F0D3
:1059C000AA80E8802A8B95F82500521E9042B4BF29
:1059D000401C002085F82500284600F011F8288199
:1059E00001B0BDE8F083018A428B8A4201D20820CF
:1059F0007047828B914201D200207047C08A704765
:105A0000C188428B8A4201D202207047808B81423A
:105A100001D20420704700207047000000000050B1
:105A2000002C014000000000000000000000000009
:105A30000000000000000000000000000000000066
:105A4000800000508000005084000050840000500E
:105A500080000050840000508400005084000050FA
:105A600080000050800000508400005080000050F2
:105A70000182020001810200014A0000014200008F
:105A800001810000018A0000000000000000000108
:105A90008C00165D165D010101000000000101008F
:105AA000F0B40246106895681318506803EB500470
:105AB000C0071CD54D441AE013F8017B05F8017BA3
:105AC000491EF9D198B113F8011BC6F38106032EC4
:105AD00008BF13F8016B01EB06214942801C2944E1
